:020000040800F2
:1000000000000120710C0008C10C0008C10C0008A0
:10001000C10C0008C10C0008C10C00080000000061
:10002000000000000000000000000000C10C0008FB
:10003000C10C000800000000C10C0008C10C000841
:10004000C10C0008C10C0008C10C0008C10C00085C
:10005000C10C0008C10C0008C10C0008C10C00084C
:10006000C10C0008C10C0008C10C0008C10C00083C
:10007000C10C0008C10C0008C10C0008C10C00082C
:10008000C10C0008C10C0008C10C000800000000F1
:10009000000000000000000000000000C10C00088B
:1000A000C10C0008C10C0008C10C0008C10C0008FC
:1000B000C10C0008C10C0008C10C0008C10C0008EC
:1000C000C10C0008C10C0008C10C0008C10C0008DC
:1000D000C10C0008C10C0008C10C000800000000A1
:1000E000C10C0008C10C0008C10C00080000000091
:1000F000000000000000000000000000C10C00082B
:1001000000000000C10C0008C10C0008C10C000870
:1001100000000000000000000000000000000000DF
:10012000610B0008C10C0008C10C0008C10C0008DC
:10013000C10C0008000000000000000000000000EA
:10014000000000000000000000000000C10C0008DA
:10015000C10C0008C10C0008C10C0008C10C00084B
:10016000C10C0008C10C00080000000000000000E5
:10017000000000000000000000000000000000007F
:1001800000000000C10C000800000000000000009A
:04019000C10C000896
:1001940010B5054C237833B9044B13B10448AFF3BD
:1001A40000800123237010BD08000020000000001F
:1001B4000C0D000808B5034B1BB103490348AFF30A
:1001C400008008BD000000000C0000200C0D000899
:1001D40080B400AF054B1B68044A43F480031360EA
:1001E40000BFBD465DF8047B704700BF3038024055
:1001F40080B485B000AFBA607B600346FB730B46E6
:10020400BB81FA7B13465B001344DB001A46C64BE2
:1002140013441968FA7B13465B001344DB001A4647
:10022400C14B13441A4621F001031360FA7B1346B1
:100234005B001344DB001A46BB4B13441968FA7B7A
:1002440013465B001344DB001A46B74B13441A46AB
:1002540021F060631360FA7B13465B001344DB00F8
:100264001A46B14B13441968FB7B5B061846FA7BAC
:1002740013465B001344DB001A46AB4B13441A4687
:1002840041EA00031360FA7B13465B001344DB006E
:100294001A46A64B13441868B989FA7B13465B00C7
:1002A4001344DB001A46A14B13441A4640EA0103E7
:1002B4001360FA7B13465B001344DB001A469C4B25
:1002C40013441A46BB681360FA7B13465B0013445D
:1002D400DB001A46974B13441A467B681360FA7B7B
:1002E40013465B001344DB001A468F4B1344196812
:1002F400FA7B13465B001344DB001A468A4B134413
:100304001A4621F0F0731360FA7B13465B00134422
:10031400DB001A46844B134419683B7EDB05184600
:10032400FA7B13465B001344DB001A467E4B1344EE
:100334001A4641EA00031360FA7B13465B00134438
:10034400DB001A46784B134419683B7F5B0518465B
:10035400FA7B13465B001344DB001A46724B1344CA
:100364001A4641EA00031360FA7B13465B00134408
:10037400DB001A466C4B13441968FA7B13465B0086
:100384001344DB001A46684B13441A4621F4F04325
:100394001360FA7B13465B001344DB001A46624B7E
:1003A4001344196897F820305B031846FA7B134608
:1003B4005B001344DB001A465B4B13441A4641EAC4
:1003C40000031360FA7B13465B001344DB001A46F8
:1003D400554B1344196897F82430DB021846FA7B0E
:1003E40013465B001344DB001A464F4B13441A4672
:1003F40041EA00031360FA7B13465B001344DB00FD
:100404001A46494B13441968FA7B13465B0013449C
:10041400DB001A46444B13441A4621F480631360EC
:10042400FA7B13465B001344DB001A463E4B13442D
:10043400196897F828305B021846FA7B13465B006C
:100444001344DB001A46384B13441A4641EA0003AE
:100454001360FA7B13465B001344DB001A46324BED
:100464001344196897F82C309B021846FA7B1346FC
:100474005B001344DB001A462B4B13441A4641EA33
:1004840000031360FA7B13465B001344DB001A4637
:10049400254B13441968FA7B13465B001344DB00B5
:1004A4001A46214B13441A4621F0C0031360FA7B09
:1004B40013465B001344DB001A461B4B13441968B4
:1004C400FA7B13465B001344DB001A46164B1344B5
:1004D4001A4641F080031360FA7B1346DB00134491
:1004E4009B001A46144B13441968FA7B1346DB002D
:1004F40013449B001A46104B13441A4621F003037D
:100504001360FA7B1346DB0013449B001A460A4B24
:100514001344186897F83010FA7B1346DB00134431
:100524009B001A460AE000BF1064024014640240B3
:10053400186402401C640240246402401C4B1344AF
:100544001A4640EA01031360FA7B13465B00134426
:10055400DB001A46174B13441968FA7B13465B00F9
:100564001344DB001A46134B13441A4621F48073D8
:100574001360FA7B13465B001344DB001A460D4BF1
:100584001344196897F834301B021846FA7B134653
:100594005B001344DB001A46064B13441A4641EA37
:1005A4000003136000BF1437BD465DF8047B704739
:1005B4002464024010640240B0B48BB000AF786091
:1005C4000B46FB707A6813465B001344DB001A4643
:1005D400344B134419687A6813465B001344DB00F8
:1005E4001A46304B13441A4621F4403313607A6898
:1005F40013465B001344DB001A462A4B1344196864
:10060400FB781B0418467A6813465B001344DB002E
:100614001A46244B13441A4641EA00031360224B42
:1006240007F108041D460FCD0FC495E80F0084E8B8
:100634000F007B689B0007F12802134453F8203C09
:100644001F2B19DD7B689B0007F12802134453F824
:10065400203C3F2B10DC154B1A687B689B0007F18C
:1006640028010B4453F8203C203B012101FA03F3F9
:100674000E4913430B6010E00D4B1A687B689B0016
:1006840007F128010B4453F8203C203B012101FAD7
:1006940003F3074913430B6000BF00BF2C37BD466B
:1006A400B0BC704710640240240D000804E100E06F
:1006B40008E100E080B483B000AF78607A68134644
:1006C4005B001344DB001A460A4B134419687A682A
:1006D40013465B001344DB001A46064B13441A46C8
:1006E40041F01003136000BF0C37BD465DF8047B76
:1006F400704700BF1064024090B486B000AF7860C9
:10070400164B07F108040FCB84E80F007B68032B1A
:100714000FDC134B1A687B689B0007F118010B442C
:1007240053F8103C012101FA03F30D4913430B6004
:100734000EE00C4B1A687B689B0007F118010B4410
:1007440053F8103C012101FA03F3064913430B60EB
:1007540000BF1837BD4690BC704700BF440D000869
:10076400086402400C64024080B483B000AF786037
:100774007A6813465B001344DB001A460A4B1344A1
:1007840019687A6813465B001344DB001A46064B6B
:1007940013441A4641F00803136000BF0C37BD46EA
:1007A4005DF8047B704700BF1064024090B486B0CB
:1007B40000AF7860164B07F108040FCB84E80F00F4
:1007C4007B68032B0FDC134B1A687B689B0007F1D3
:1007D40018010B4453F8103C012101FA03F30D49AD
:1007E40013430B600EE00C4B1A687B689B0007F107
:1007F40018010B4453F8103C012101FA03F3064994
:1008040013430B6000BF1837BD4690BC704700BF50
:10081400540D0008086402400C64024090B494B083
:1008240000AF78603960444B07F134040FCB84E89F
:100834000F00424B07F124040FCB84E80F00404B18
:1008440007F114040FCB84E80F000023FB6400239A
:10085400BB6400237B643B68032B30DC394B1A6890
:100864003B689B0007F150010B4453F81C3C22FAEF
:1008740003F303F00103FB64FB6C3B61314B1A6827
:100884003B689B0007F150010B4453F82C3C22FABF
:1008940003F303F00103BB64BB6CFB60294B1A68D0
:1008A4003B689B0007F150010B4453F83C3C22FA8F
:1008B40003F303F001037B647B6CBB602FE0224BEA
:1008C4001A683B689B0007F150010B4453F81C3C29
:1008D40022FA03F303F00103FB64FB6C3B611A4B44
:1008E4001A683B689B0007F150010B4453F82C3CF9
:1008F40022FA03F303F00103BB64BB6CFB60124BED
:100904001A683B689B0007F150010B4453F83C3CC8
:1009140022FA03F303F001037B647B6CBB607B6806
:100924001C4607F1080393E8070084E80700786889
:100934005037BD4690BC7047640D0008540D000844
:10094400440D0008006402400464024080B483B093
:1009540000AF78607A6813465B001344DB001A46E4
:100964000A4B134419687A6813465B001344DB008E
:100974001A46064B13441A4641F00103136000BFA4
:100984000C37BD465DF8047B704700BF106402401D
:1009940080B483B000AF0346FB71084B1B68FA793F
:1009A400012101FA02F21146044A0B43136000BF0D
:1009B4000C37BD465DF8047B704700BF30380240F9
:1009C40080B483B000AF0346FB710B46BB71134682
:1009D4007B71FB79424A52F823301A68BB795B0079
:1009E400032101FA03F3DB431846FB793C4951F830
:1009F400233002401A60FB79394A52F823301A68CE
:100A04007B791B09DBB21946BB795B0001FA03F35E
:100A14001846FB79324951F8233002431A607B7936
:100A24001B09DBB2012B27D1FB792D4A52F8233065
:100A340004331A68BB79012101FA03F3DB43184636
:100A4400FB79274951F82330043302401A60FB79BB
:100A5400234A52F8233004331A687B7903F00F01D8
:100A6400BB7901FA03F31846FB791D4951F8233089
:100A7400043302431A602DE07B791B09DBB2012B9E
:100A840028D1FB79164A52F823300C331A68BB7903
:100A94005B00032101FA03F3DB431846FB79104999
:100AA40051F823300C3302401A60FB790C4A52F897
:100AB40023300C331A687B7903F00F01BB795B0098
:100AC40001FA03F31846FB79054951F823300C3336
:100AD40002431A6000BF0C37BD465DF8047B7047C3
:100AE4000000002080B483B000AF0346FB710B46C6
:100AF400BB7113467B717B79002B01D001237B7181
:100B0400FB79154A52F8233014331A68BB79012152
:100B140001FA03F3DB431846FB790F4951F82330FC
:100B2400143302401A60FB790B4A52F82330143311
:100B34001A687979BB7901FA03F31846FB790649F7
:100B440051F82330143302431A6000BF0C37BD46FA
:100B54005DF8047B704700BF0000002080B584B0BE
:100B640000AF3B1D00211846FFF758FEBB68002B61
:100B740007D0012201210020FFF7B4FF0020FFF776
:100B840015FE7B68002B07D0012200210020FFF70F
:100B9400A9FF0020FFF7B0FD00BF1037BD4680BDA0
:100BA40080B58AB008AF0020FFF7F2FE10220021C2
:100BB4000020FFF705FF102201210020FFF700FFAE
:100BC4000023FB7106E0FB791D4A0121D154FB7916
:100BD4000133FB71FB79632BF5D90023BB7106E06C
:100BE400BB79184A0021D154BB790133BB71BB795D
:100BF400632BF5D9FFF7ECFA002307930023069340
:100C040001230593012304930023039300230293F8
:100C140001230193012300930A4B094A1421002064
:100C2400FFF7E6FA03210020FFF7C6FC0020FFF7D8
:100C340041FD0020FFF798FD0020FFF787FEFEE747
:100C4400880000202400002080B400AF064BD3F8B5
:100C54008830054A43F47003C2F8883000BFBD46AB
:100C64005DF8047B704700BF00ED00E0DFF834D08E
:100C74000D480E490E4A002302E0D458C4500433F0
:100C8400C4188C42F9D30B4A0B4C002301E01360C7
:100C94000432A242FBD3FFF7D7FF00F011F8FFF7AD
:100CA4007FFF7047000001200000002008000020A2
:100CB4007C0D000808000020EC000020FEE7000086
:100CC40070B50D4D0D4C641BA4100026A64209D12D
:100CD4000B4D0C4C00F018F8641BA4100026A6421F
:100CE40005D170BD55F8043B98470136EEE755F839
:100CF400043B98470136F2E7740D0008740D0008B0
:100D0400740D0008780D0008F8B500BFF8BC08BCE5
:100D14009E467047F8B500BFF8BC08BC9E467047B5
:100D240038000000390000003A0000003B000000D9
:100D34003C000000440000004500000046000000A4
:100D4400050000000B000000150000001B0000005F
:100D5400040000000A000000140000001A00000053
:100D64000300000009000000130000001900000047
:040D7400B9010008B9
:040D780095010008D9
:080D7C000000024000040240E7
:0400000508000C7172
:00000001FF
